:04000000D6EF00F047
:10000800FACF06F0FBCF07F0E9CF08F078ED0CF057
:10001800D8CF29F0E8CF2AF0E0CF2BF0FACF2CF098
:10002800FBCF2DF0E9CF2EF0EACF2FF0E1CF30F063
:10003800E2CF31F0D9CF32F0DACF33F0F3CF34F06A
:10004800F4CF35F0F6CF36F0F7CF37F0F8CF38F0F9
:10005800F5CF39F09EA81CD05250010D0001880E32
:10006800F324D96E0001000EF420DA6EDF50AD6E75
:10007800522A5350525CD8A00BD09D98276E010E7F
:1000880000010001876F2750276E010E466E27502A
:100098009EAA59D03F0E4F6404D0000E416E030E45
:1000A80014D04F50010D0101000EF324D96E010147
:1000B800010EF420DA6EC1EC0FF0DF6EABB202D0A5
:1000C800ABA40BD0000E416E010E406E276E010EE0
:1000D800506E2750F29AD59E36D00101010E246E3B
:1000E8000101000E236E4750050D3CC027F03DC0AE
:1000F80028F0F3502726F4502822010E2724D96E21
:10010800000E2820DA6EDECF25F0DDCF26F061EC78
:100118000DF024502310D8B40CD09D9A276E010EF0
:1001280000010001856F2750276E010E466E27508B
:100138000AD04F2A60C014F061C015F011EC10F01D
:10014800F294F28AD58EF2A40AD0F29AF294000EB2
:10015800416E020E406E276E010E506E275039C058
:10016800F5FF38C0F8FF37C0F7FF36C0F6FF35C0D7
:10017800F4FF34C0F3FF33C0DAFF32C0D9FF31C017
:10018800E2FF30C0E1FF2FC0EAFF2EC0E9FF2DC01B
:10019800FBFF2CC0FAFF2BC0E0FF2AC0E8FF29C0F4
:0801A800D8FF100017EF0FF063
:10100000002A636C6F73652A006F70656E0A002496
:1010100024240A00434D440000000001C96F800EE3
:1010200000010001C36F0001C951080E9AEC0FF0D6
:10103000630EC86E9F86A2869E969D86A08600013E
:10104000C96F000E496E0001C9510001C96F000E41
:101050004C6E0001C9510001C96F000E4A6E0001BB
:10106000C951000E436E000E426E4350800A800F3D
:10107000010ED8B4425CD8B0D7D042C0C3F043C050
:10108000C4F0000E00010001C66F0A0E0001C56F1A
:10109000E6EC0EF0560E00010001C325D96E000EDD
:1010A00000010001C421DA6EDF98DF9ADF9CDF9E29
:1010B00042C0C3F043C0C4F0000E00010001C66F7F
:1010C0000A0E0001C56FE6EC0EF0560E000100019D
:1010D000C325D96E000E00010001C421DA6EDF9035
:1010E000DF92DF94DF9642C0C3F043C0C4F0000E2D
:1010F00000010001C66F0A0E0001C56FE6EC0EF09C
:10110000010E00010001C327000E0001C423560E8A
:1011100000010001C325D96E000E00010001C421A9
:10112000DA6E000EDF6E000E456E000E446E455006
:10113000800A800F020ED8B4445CD8B033D042C0CD
:10114000C3F043C0C4F0000E00010001C66F0A0ED8
:101150000001C56FE6EC0EF0020E44240001C96FD9
:10116000000E45200001CA6F560E0001CB6F000E25
:10117000CC6F0001C9510001CB270001CA51000109
:10118000CC2300010001C3510001CB25D96E000121
:101190000001C4510001CC21DA6E000EDF6E444A1A
:1011A000452AC5D7000E456E000E446E4550800A94
:1011B000800F040ED8B4445CD8B033D042C0C3F022
:1011C00043C0C4F0000E00010001C66F0A0E00010A
:1011D000C56FE6EC0EF0060E44240001C96F000E48
:1011E00045200001CA6F560E0001CB6F000ECC6F78
:1011F0000001C9510001CB270001CA510001CC23D5
:1012000000010001C3510001CB25D96E000100018E
:10121000C4510001CC21DA6E000EDF6E444A452A2B
:10122000C5D7424A432A21D712004750050DF35033
:1012300000010001D025D96EF45000010001D12138
:10124000DA6EDF5000010001D46FDCD00001000134
:1012500085671FD04750050D0001D0C0D2F00001B6
:10126000D1C0D3F0F3500001D227F4500001D323B2
:10127000010E0001D225D96E000E0001D321DA6ED5
:101280000001DECFC3F00001DDCFC4F0D0EC0FF0E1
:10129000C6D04750050D0001D0C0D2F00001D1C02A
:1012A000D3F0F3500001D227F4500001D323030EF2
:1012B0000001D225D96E000E0001D321DA6E0001A3
:1012C000DECFA8F00001DDCFA9F001D80CD00500D9
:1012D000FA6E00010001A851FD6E0001A951FE6ED9
:1012E000FF6AFA501200472A0001D26F000E000177
:1012F0000001856F7FD00001000187671FD0475034
:10130000050D0001D0C0D2F00001D1C0D3F0F350E0
:101310000001D227F4500001D323010E0001D22591
:10132000D96E000E0001D321DA6E0001DECFCDF0C0
:101330000001DDCFCEF0E2EC0DF071D04750050D8D
:101340000001D0C0D2F00001D1C0D3F0F3500001B1
:10135000D227F4500001D323030E0001D225D96E09
:10136000000E0001D321DA6E0001DECFA8F00001EB
:10137000DDCFA9F001D80CD00500FA6E0001000104
:10138000A851FD6E0001A951FE6EFF6AFA501200CD
:10139000472A0001D26F000E00010001876F2AD09A
:1013A0004750050D0001D0C0D2F00001D1C0D3F0EC
:1013B000F3500001D227F4500001D323030E0001A3
:1013C000D225D96E000E0001D321DA6E0001DECFE6
:1013D000A8F00001DDCFA9F001D80FD00500FA6E0A
:1013E00000010001A851FD6E0001A951FE6EFF6AC7
:1013F000FA5012000001D25112D00001D26F000E3B
:10140000466EF8D700010001D451000AD8B41ED7A7
:10141000010AD8B470D7030AD8B4C2D7EED71200E5
:101420000001000184C0C3F000010001C46B000E84
:1014300000010001C66F0A0E0001C56F60EC0BF0E1
:1014400000010001C35100010001D06F0001000143
:10145000D0510A0DF350000800010001842500015D
:101460000001CF6F00010001D039F00B0001000135
:10147000CF1100010001866F0001000183C0C3F09D
:1014800000010001C46B000E00010001C66F0A0ECE
:101490000001C56F60EC0BF000010001C3510001B9
:1014A0000001D06F00010001D0510A0DF350000877
:1014B00000010001832500010001CF6F0001000140
:1014C000D039F00B00010001CF1100010001816F44
:1014D0000001000182C0C3F000010001C46B000ED6
:1014E00000010001C66F0A0E0001C56F60EC0BF031
:1014F00000010001C35100010001D06F0001000193
:10150000D0510A0DF35000080001000182250001AE
:101510000001CF6F00010001D039F00B0001000184
:10152000CF1100010001806F000E4DEC0EF000099C
:10153000D8B421D00001CC6F040E00010001C36FAC
:101540000001CC510001CD6F000E00010001C46FFD
:101550000001CD5186C0C5F081C0C6F080C0C7F083
:101560000001CE6F000E00010001C86F0001CE51D6
:10157000000EFBEC0BF01200F29EF29CB5EC0EF0AC
:101580000DEC08F0F28EF28C62C0C3F063C0C4F0C0
:10159000ECEC0FF05592AEEC0FF006EC10F0000101
:1015A000000E00010001C46F0001AA0E000100013D
:1015B000C36F3CEC0FF0040055A260D03E4A3F2AB6
:1015C0003EC0C3F03FC0C4F0030E00010001C66F6F
:1015D000840E0001C56FD7EC0CF000010001C4516E
:1015E0000001C311D8A40FD00001000E00010001BA
:1015F000C46F0001AA0E00010001C36F3CEC0FF0A4
:1016000010EC0AF039D0000E4DEC0EF00009D8B401
:1016100033D00001D56F010E00010001C36F00013E
:10162000D5510001D66F000E00010001C46F00010A
:10163000D6510001D76F000E00010001C56F0001F7
:10164000D7510001D86F000E00010001C66F0001E4
:10165000D8510001D96F000E00010001C76F0001D1
:10166000D9510001DA6F030E00010001C86F0001BB
:10167000DA51000EFBEC0BF055920BD05704D8A4B6
:1016800008D0A5EC0DF00001D56F000E576E0001DB
:10169000D55155A409D03AC0C3F03BC0C4F0F9EC11
:1016A0000FF0CD80559404004650D8B484D7000183
:1016B0003DC0D1F000013CC0D0F015EC09F07BD763
:1016C0000001C76F000E00010001C96F0001C75182
:1016D00000010001C651800AF36E800EF35C000E1B
:1016E000D8B4C55DD8B00FD000010001C56D0001B0
:1016F000C61FD8B0C62B0001C76F010E0001000144
:10170000C96F0001C75100010001C451800AF36E86
:10171000800EF35C000ED8B4C35DD8B00BD00001CE
:101720000001C36D0001C41FD8B0C42B010E00011D
:101730000001C91B000E00010001CB6F000E00016B
:10174000CA6F00010001C651C511D8B443D00001D1
:10175000C76F010E00010001C86F0001C75109D019
:10176000000100010001D890C537C6370001000113
:10177000C82B00010001C6AFF3D700010001000132
:10178000D890CA37CB3700010001C55100010001D4
:10179000C35D00010001C65100010001C459D8A079
:1017A0000FD000010001C55100010001C35F00011D
:1017B0000001C65100010001C45B00010001CA81A3
:1017C000000100010001D890C633C53300010001BB
:1017D000C82FD3D700010001C951D8B407D00001E8
:1017E0000001CA6D0001CB1FD8B0CB2BCAC0C3F01B
:1017F000CBC0C4F01200E8CFCAF0C3C0C9F00001EA
:101800000001CA510A0D560EF324D96E000EF420C1
:10181000DA6E0001C93BDF500001C9190F0BC9196D
:10182000DF6E00010001CA510A0D060EF326000EFC
:10183000F422560EF324D96E000EF420DA6E000165
:10184000C4C0DFFF00010001CA510A0D070EF326D4
:10185000000EF422560EF324D96E000EF420DA6E38
:101860000001C5C0DFFF00010001CA510A0D080ECA
:10187000F326000EF422560EF324D96E000EF42047
:10188000DA6E0001C6C0DFFF00010001CA510A0D77
:10189000090EF326000EF422560EF324D96E000E24
:1018A000F420DA6E0001C7C0DFFF00010001CA5159
:1018B0000A0D560EF324D96E000EF420DA6EDF50B6
:1018C00000010001C819F00B0001C819DF6E00010A
:1018D0000001CA510A0D010EF326000EF422560E25
:1018E000F324D96E000EF420DA6E000EDF6E1200C3
:1018F0000600EACF09F0E1CF0AF0E2CF0BF0D9CF32
:101900000CF0DACF0DF0F3CF0EF0F4CF0FF0F6CFEE
:1019100010F0F7CF11F0F8CF12F0F5CF13F0A1A22D
:1019200008D0558462C001F063C002F01BEC10F0D7
:10193000A1929EA008D062C001F063C002F01BEC2F
:1019400010F0CD909E90F2A203D08A7A5582F29246
:101950009EA605D09E96056E010E4C6E0550A1A662
:1019600009D0A196056E010E4C6E0550056E010E54
:10197000496E055013C0F5FF12C0F8FF11C0F7FF04
:1019800010C0F6FF0FC0F4FF0EC0F3FF0DC0DAFF6A
:101990000CC0D9FF0BC0E2FF0AC0E1FF09C0EAFF9B
:1019A00008C0E9FF07C0FBFF06C0FAFF11000001F5
:1019B0000001C651C511D8B43AD00001C76F010E5D
:1019C00000010001C86F0001C75109D000010001EA
:1019D0000001D890C537C63700010001C82B0001AF
:1019E0000001C6AFF3D700010001C551000100019D
:1019F000C35D00010001C65100010001C459D8A017
:101A00000CD000010001C55100010001C35F0001BD
:101A10000001C65100010001C45B0001000100018A
:101A2000D890C633C53300010001C82FDCD7C3C02E
:101A3000C3F0C4C0C4F0120037D01AC0D9FF1BC015
:101A4000DAFFDF50D8B411D01CC0F6FF1DC0F7FF7D
:101A5000000EF86E0800F5CF20F01AC0D9FF1BC0A9
:101A6000DAFFDF502018D8B41BD01CC0F6FF1DC011
:101A7000F7FF000EF86E0800F550206E216A201E58
:101A8000211E204A212A1AC0D9FF1BC0DAFFDF50CD
:101A9000226E225020241A6E000E21201B6E10D0C0
:101AA0001A4A1B2A1C4A1D2A1E06D8A01F061E28D9
:101AB000D8B41F28D8A4C1D7000E1B6E000E1A6E12
:101AC000120033D024C01BF023C01AF026C01DF032
:101AD00025C01CF026C015F025C014F05FEC0FF0F7
:101AE00014C01EF015C01FF01CEC0DF01B501A1096
:101AF000D8A405D024C024F023C023F025D0010EA3
:101B00002324146E000E2420156E25C0F6FF26C077
:101B1000F7FF000EF86E0800F550166E176A80EC9D
:101B20000FF014C023F015C024F024502310D8B4B3
:101B300007D023C0D9FF24C0DAFFDF50D8A4C2D712
:101B4000000E246E000E236E120058500F0B000181
:101B50000001C36F58380F0B070B0A0DF3CFC4F009
:101B600000010001C35100010001C4250001000172
:101B7000866F59500F0B00010001C36F59380F0BCE
:101B8000070B0A0DF3CFC4F000010001C35100019F
:101B90000001C42500010001816F5A500F0B0001A4
:101BA0000001C36F5A380F0B010B0A0DF3CFC4F0BD
:101BB00000010001C35100010001C4250001000122
:101BC000806F12000001CF6F000E466E0001CF51F2
:101BD00000010001CEC0C4F000010001CDC0C3F07F
:101BE00018EC0EF000010001C351536E0001CF6FDD
:101BF000000E526E0001CF510001000E00010001E5
:101C0000C46F0001880E00010001C36F00010001D4
:101C1000CEC0C6F000010001CDC0C5F0000153C028
:101C2000C7F000010001C86B81EC0EF09D88120026
:101C300000010001C4C0C8F000010001C3C0C7F02A
:101C400004D000010001C74BC82B0001C7C0F6FF3C
:101C50000001C8C0F7FF000EF86E0800F55000093B
:101C6000D8A4EFD70001C3C0C5F00001C4C0C6F0BE
:101C70000001C51FC61FC54BC62B00010001C7517F
:101C80000001C52500010001C36F00010001C8511A
:101C90000001C6210001C46F1200E8CFC5F00001A9
:101CA000C36F000E00010001C46F0001C3510001A9
:101CB0000001C5510A0D560EF324D96E000EF42012
:101CC000DA6EDF380F0B0009D8A417D0000100012D
:101CD000C5510A0D560EF324D96E000EF420DA6EAB
:101CE000DF500F0B0009D8A408D00001C36F010E0C
:101CF00000010001C46F0001C35100010001C45183
:101D0000120000010001C6C0CCF000010001C5C0F6
:101D1000CBF000010001C4C0CAF000010001C3C043
:101D2000C9F017D00001CBC0F6FF0001CCC0F7FF0F
:101D3000000EF86EC9C0D9FFCAC0DAFF0800F5CF9F
:101D4000DFFF00010001CB4BCC2B00010001C94B90
:101D5000CA2B00010001C707D8A0C8070001C72986
:101D6000D8B4C829D8B41200DDD7C10E926EC10E06
:101D7000936EDC0E946E000E946EF80E966EC1504B
:101D8000F00B0E09C16ED59ED59CD59AD598D596E7
:101D9000D580D582D5841B0E616E1D0E606E559068
:101DA000F294CD90CD92CD8ECD96CD9CCD84300E3B
:101DB000CD129E90B190B18EB192300EB112FB0E49
:101DC000636E1D0E626E5594A19212000001000117
:101DD000C35100010001C503F3CFC7F0F4CFC8F031
:101DE00000010001C35100010001C603F3CFF4FF5D
:101DF000F36AF35000010001C727F450000100010D
:101E0000C82300010001C45100010001C503F3CF44
:101E1000F4FFF36AF35000010001C727F4500001FA
:101E20000001C823C7C0C3F0C8C0C4F0120001EE4F
:101E300000F0400EEE6AE806FDE100EE80F0280EAC
:101E4000EE6AE806FDE100EE3AF0260EEE6AE806DC
:101E5000FDE1BC0EF66E1F0EF76E000EF86E00EE82
:101E6000A8F010EE1BF00900F5CFEEFFE550E150B1
:101E7000FAE10001BCEF0AF00001C56F000E476EE9
:101E80000001C5510001C56F010E466E0001C5512C
:101E90000001C56F000E00010001876F0001C551F0
:101EA0000001C56F000E00010001856F0001C551E2
:101EB0000001C4C03DF00001C3C03CF0120015C0D9
:101EC00019F014C018F002D0184A192A18C0F6FFE9
:101ED00019C0F7FF000EF86E0800F5500009D8A4ED
:101EE000F3D714C016F015C017F0161E171E164AA9
:101EF000172A18501624146E19501720156E120048
:101F0000165014C0D9FF15C0DAFFDF6205D015C026
:101F100015F014C014F00DD014C0D9FF15C0DAFFAD
:101F2000144A152ADF50D8A4EBD7000E156E000E08
:101F3000146E1200E8CFC4F03F0EC716000EC66E36
:101F4000000EC56E00010001C451C612000100015F
:101F5000C351C71294869488C68A1200000EB06ED0
:101F6000110EAF6EAC84AC98B886AB8EAB88AB9AD2
:101F7000AC9CAB9CAC9AAC8A9F989D989F9A9D9A7A
:101F80001200F20E5416ABAC03D05490ABB0548098
:101F9000ABB45484ABB25486AECF14F014501200DC
:101FA0000001C56F000E466E0001C5510001C56FEE
:101FB000000E4F6E0001C5519D8A12004A20010F8C
:101FC000104A200014104A200109104A2000011074
:101FD0004C200213104A20000001C4C0C5F00001CB
:101FE000C66BC5BFC6690001C551B36EC3C0B2FFA1
:101FF00012000001C4C0C5F00001C66BC5BFC669B0
:102000000001C551CF6EC3C0CEFF1200D08EF19437
:10201000F294F28AF19CF292F2889F809E909D80C9
:10202000120015C016F0176A16BE17681650D76E44
:1020300014C0D6FF120002C003F0046A03BE046895
:0E2040000350B36E01C0B2FF12001200120076
:020000040020DA
:08000000FFFFFFFFFFFFFFFF00
:020000040030CA
:0E000000FF060F11FF8381FF0FC00FE00F40BE
:00000001FF
