:04000000D7EF00F046
:10000800FACF06F0FBCF07F0E9CF08F09DED10F02E
:10001800D8CF29F0E8CF2AF0E0CF2BF0FACF2CF098
:10002800FBCF2DF0E9CF2EF0EACF2FF0E1CF30F063
:10003800E2CF31F0D9CF32F0DACF33F0F3CF34F06A
:10004800F4CF35F0F6CF36F0F7CF37F0F8CF38F0F9
:10005800F5CF39F09EAA59D03F0E4F6404D0000E58
:10006800416E030E14D04F50010D0101000EF32410
:10007800D96E0101010EF420DA6EECEC14F0DF6E9B
:10008800ABB202D0ABA40BD0000E416E010E406E95
:10009800276E010E506E2750F29AD59E36D0010178
:1000A800010E246E0101000E236E4750050D3CC061
:1000B80027F03DC028F0F3502726F4502822010EDF
:1000C8002724D96E000E2820DA6EDECF25F0DDCF8A
:1000D80026F0FCEC10F024502310D8B40CD09D9AD4
:1000E800276E010E00010001896F2750276E010E4F
:1000F800466E27500AD04F2A60C014F061C015F030
:100108003CEC15F0F294F28AD58E9EA81DD0525080
:10011800010D00018B0EF324D96E0001000EF420AE
:10012800DA6EDF50AD6E522A5350525CD8A00CD014
:10013800AC9A9D98276E010E000100018A6F275026
:10014800276E010E466E2750F2A40AD0F29AF29456
:10015800000E416E020E406E276E010E506E275043
:1001680039C0F5FF38C0F8FF37C0F7FF36C0F6FFD3
:1001780035C0F4FF34C0F3FF33C0DAFF32C0D9FF13
:1001880031C0E2FF30C0E1FF2FC0EAFF2EC0E9FF17
:100198002DC0FBFF2CC0FAFF2BC0E0FF2AC0E8FFF0
:0A01A80029C0D8FF10003AEF14F050
:10100000002A434C4F532A006F70656E0A00242457
:101010002400434D44003A0000000001AB6F000E75
:101020004C6E0001AB51496602D0C5AC70D10001D5
:10103000AB6F000E496E0001AB510001AB6F080EA3
:101040004D6E0001AB51C584C5A47DD1FDD74B5079
:101050000A0D560EF324D96E000EF420DA6EDF3836
:101060000F0B0009D8B408D10001AB6F010E4D6E13
:101070000001AB514B50010D480EF324D96E000E08
:10108000F420DA6EDF50C96E5ED14E380F0B0001CE
:10109000AB6F0001AB51010D060EF326000EF422DA
:1010A000560E0001AC6F000EAD6FF3500001AC277F
:1010B000F4500001AD234B500A0DF3500001AC2554
:1010C000D96EF4500001AD21DA6EDF50C96E010E09
:1010D0000001AB6F4E380F0B0001AC6F0001AB513C
:1010E0000001AC270001AC3B4E500001AC190F0BC6
:1010F0000001AC194E6E4E380F0B0001AB6F4B5018
:101100000A0D560EF324D96E000EF420DA6EDF3885
:101110000F0B0001AB5DD8A015D04B500A0D560E39
:10112000F324D96E000EF420DA6EDF500F0B0009A5
:10113000D8B404D00001AB6F060E34D00001AB6F01
:10114000070E30D00001AB6F010E2CD0C586010E0A
:101150000001AB6F4E500F0B0001AC6F0001AB51A3
:101160000001AC274E500001AC19F00B0001AC1986
:101170004E6E4E500F0B0001AB6F4B500A0D560ECA
:10118000F324D96E000EF420DA6EDF500F0B00014D
:10119000AB5DD8A004D00001AB6F050E03D00001F9
:1011A000AB6F040E4D6E0001AB51CDD04B500A0D0C
:1011B0004E500F0B0001AB6FAC6B010E0001AB2763
:1011C000000EAC23560E0001AD6F000EAE6F000195
:1011D000AB510001AD270001AC510001AE23F3502B
:1011E0000001AD25D96EF4500001AE21DA6EC9CFF1
:1011F000DFFF0001AB6F030E4D6E0001AB51C59ACE
:10120000C588C5A8A0D0FDD74B500A0D4E500F0B76
:101210000001AB6FAC6B010E0001AB27000EAC23DD
:10122000560E0001AD6F000EAE6F0001AB51000114
:10123000AD270001AC510001AE23F3500001AD25F4
:10124000D96EF4500001AE21DA6EC9CFDFFF000184
:10125000AB6F070E4D6E0001AB51C58AC588C5A89E
:1012600072D0FDD70001AB6F020E4D6E0001AB5185
:10127000C582C5A268D0FDD70001AB6F030E4D6ECD
:101280000001AB514B50010D480EF324D96E000EF6
:10129000F420DA6EDF500001AB6F0001AB29F3D60A
:1012A0000001AB6F080E4D6E0001AB514B500A0DA3
:1012B000560EF324D96E000EF420DA6EDF90DF9222
:1012C000DF94DF964B500A0D560EF324D96E000EB4
:1012D000F420DA6EDF98DF9ADF9CDF9EC584C5A418
:1012E00032D0FDD70001AB6F000E4A6E0001AB514A
:1012F0004B500A0D010EF326000EF422560EF32475
:10130000D96E000EF420DA6E010EDF6E1CD04D5047
:10131000000AD8B49CD6010AD8B4B7D6030AD8B408
:10132000ABD7010AD8B412D7070AD8B43FD7010AFD
:10133000D8B46AD7030AD8B495D7010AD8B4B0D7BD
:101340000F0AD8B4CFD712000001B16F800E000190
:101350000001AB6F0001B151080EC5EC14F0630E33
:10136000C86E9F86A2869E969D86A0860001B16F5C
:10137000000E496E0001B1510001B16F000E4C6EBC
:101380000001B1510001B16F000E4A6E0001B15170
:10139000000E436E000E426E4350800A800F010E15
:1013A000D8B4425CD8B0D7D042C0ABF043C0ACF0A8
:1013B000000E00010001AE6F0A0E0001AD6FDCEC03
:1013C00013F0560E00010001AB25D96E000E00018E
:1013D0000001AC21DA6EDF98DF9ADF9CDF9E42C00D
:1013E000ABF043C0ACF0000E00010001AE6F0A0E7E
:1013F0000001AD6FDCEC13F0560E00010001AB25CF
:10140000D96E000E00010001AC21DA6EDF90DF9290
:10141000DF94DF9642C0ABF043C0ACF0000E000199
:101420000001AE6F0A0E0001AD6FDCEC13F0010E8F
:1014300000010001AB27000E0001AC23560E000195
:101440000001AB25D96E000E00010001AC21DA6E5F
:10145000000EDF6E000E456E000E446E4550800A91
:10146000800F020ED8B4445CD8B033D042C0ABF089
:1014700043C0ACF0000E00010001AE6F0A0E000187
:10148000AD6FDCEC13F0020E44240001B16F000ECE
:1014900045200001B26F560E0001B36F000EB46F0D
:1014A0000001B1510001B3270001B2510001B42382
:1014B00000010001AB510001B325D96E000100010C
:1014C000AC510001B421DA6E000EDF6E444A452AA9
:1014D000C5D7000E456E000E446E4550800A800F41
:1014E000040ED8B4445CD8B033D042C0ABF043C093
:1014F000ACF0000E00010001AE6F0A0E0001AD6FEE
:10150000DCEC13F0060E44240001B16F000E452000
:101510000001B26F560E0001B36F000EB46F0001F0
:10152000B1510001B3270001B2510001B423000101
:101530000001AB510001B325D96E00010001AC518F
:101540000001B421DA6E000EDF6E444A452AC5D789
:10155000424A432A21D712004750050DF35000019B
:101560000001BE25D96EF45000010001BF21DA6EE2
:10157000DF5000010001C26FDCD00001000189676B
:101580001FD04750050D0001BEC0C0F00001BFC014
:10159000C1F0F3500001C027F4500001C123010E37
:1015A0000001C025D96E000E0001C121DA6E0001D4
:1015B000DECFABF00001DDCFACF0FBEC14F0C6D019
:1015C0004750050D0001BEC0C0F00001BFC0C1F012
:1015D000F3500001C027F4500001C123030E0001A5
:1015E000C025D96E000E0001C121DA6E0001DECFE8
:1015F000C9F00001DDCFCAF001D80CD00500FA6EA9
:1016000000010001C951FD6E0001CA51FE6EFF6A62
:10161000FA501200472A0001C06F000E00010001BD
:10162000896F7FD0000100018A671FD04750050DE8
:101630000001BEC0C0F00001BFC0C1F0F350000106
:10164000C027F4500001C123010E0001C025D96E4E
:10165000000E0001C121DA6E0001DECFB5F00001FD
:10166000DDCFB6F0D7EC12F071D04750050D000178
:10167000BEC0C0F00001BFC0C1F0F3500001C027E0
:10168000F4500001C123030E0001C025D96E000EE5
:101690000001C121DA6E0001DECFC9F00001DDCF0B
:1016A000CAF001D80CD00500FA6E00010001C95142
:1016B000FD6E0001CA51FE6EFF6AFA501200472A01
:1016C0000001C06F000E000100018A6F2AD0475050
:1016D000050D0001BEC0C0F00001BFC0C1F0F35055
:1016E0000001C027F4500001C123030E0001C025F2
:1016F000D96E000E0001C121DA6E0001DECFC9F003
:101700000001DDCFCAF001D80FD00500FA6E00014C
:101710000001C951FD6E0001CA51FE6EFF6AFA5008
:1017200012000001C05112D00001C06F000E466EC1
:10173000F8D700010001C251000AD8B41ED7010A2F
:10174000D8B470D7030AD8B4C2D7EED712000001BC
:10175000B36FD00E486E0001B3510001B36F020E9B
:1017600000010001AB6F0001B3510001B46F070E1F
:1017700000010001AC6F0001B4510001B56F100E03
:1017800000010001AD6F0001B5510001B66F000E00
:1017900000010001AE6F0001B6510001B76F000EED
:1017A00000010001AF6F0001B7510001B86F000EDA
:1017B00000010001B06F0001B851000EB6EC0FF04F
:1017C00002D00DEC14F05704D8A4FBD70001B36F7E
:1017D000010E00010001AB6F0001B3510001B46FB5
:1017E000000E00010001AC6F0001B4510001B56FA3
:1017F000000E00010001AD6F0001B5510001B66F90
:10180000000E00010001AE6F0001B6510001B76F7C
:10181000000E00010001AF6F0001B7510001B86F69
:10182000010E00010001B06F0001B851000EB6ECCE
:101830000FF002D00DEC14F05704D8A4FBD7585089
:101840007F0B00010001B96F0001B36F010E0001B1
:101850000001AB6F0001B3510001B46F020E000133
:101860000001AC6F0001B4510001B56F000E000122
:101870000001AD6F0001B5510001B66F000E00010F
:101880000001AE6F0001B6510001B76F000E0001FC
:101890000001AF6F0001B7510001B86F010E0001E8
:1018A0000001B06F0001B851000EB6EC0FF002D08D
:1018B0000DEC14F05704D8A4FBD758504009000190
:1018C0000001B96F0001B36F020E00010001AB6FA0
:1018D0000001B3510001B46F020E00010001AC6FB2
:1018E0000001B451B9C0ADF00001B56F000E0001A8
:1018F0000001AE6F0001B5510001B66F000E00018E
:101900000001AF6F0001B6510001B76F000E00017A
:101910000001B06F0001B751000EB6EC0FF002D01D
:101920000DEC14F05704D8B41200FAD700010001EE
:1019300088C0ABF000010001AC6B000E000100019B
:10194000AE6F0A0E0001AD6F13EC0EF00001000146
:10195000AB5100010001B86F00010001B8510A0D40
:10196000F350000800010001882500010001B76F55
:1019700000010001B8510001B46FB56B0001B43B28
:10198000B53BF00EB517B4510F0BB513F00EB417ED
:1019900000010001B7510001B41100010001846F82
:1019A0000001B5510001856F0001000187C0ABF057
:1019B00000010001AC6B000E00010001AE6F0A0EC9
:1019C0000001AD6F13EC0EF000010001AB510001FE
:1019D0000001B86F00010001B8510A0DF350000872
:1019E00000010001872500010001B76F000100011F
:1019F000B8510001B46FB56B0001B43BB53BF00EBC
:101A0000B517B4510F0BB513F00EB4170001000158
:101A1000B7510001B41100010001826F0001B551FE
:101A20000001836F0001000186C0ABF000010001DE
:101A3000AC6B000E00010001AE6F0A0E0001AD6F2D
:101A400013EC0EF000010001AB5100010001B86F72
:101A500000010001B8510A0DF35000080001000117
:101A6000862500010001B76F00010001B851000197
:101A7000B46FB56B0001B43BB53BF00EB517B45174
:101A80000F0BB513F00EB41700010001B7510001A0
:101A9000B41100010001806F0001B5510001816F98
:101AA000000E43EC13F00009D8B421D00001B46F4C
:101AB000040E00010001AB6F0001B4510001B56FCD
:101AC000000E00010001AC6F0001B55184C0ADF003
:101AD00082C0AEF080C0AFF00001B66F000E000112
:101AE0000001B06F0001B651000EB6EC0FF012000D
:101AF000F29EF29CABEC13F0A4EC09F0F28EF28CA7
:101B000062C0ABF063C0ACF017EC15F05592A7ECD7
:101B10000BF0D9EC14F031EC15F055A260D03E4A30
:101B20003F2A3EC0ABF03FC0ACF0030E0001000105
:101B3000AE6F840E0001AD6FE1EC11F00001000109
:101B4000AC510001AB11D8A40FD00001000E000170
:101B50000001AC6F0001CB0E00010001AB6F5FEC28
:101B600014F096EC0CF039D0000E43EC13F00009A1
:101B7000D8B433D00001C36F010E00010001AB6F78
:101B80000001C3510001C46F000E00010001AC6FE1
:101B90000001C4510001C56F000E00010001AD6FCE
:101BA0000001C5510001C66F000E00010001AE6FBB
:101BB0000001C6510001C76F000E00010001AF6FA8
:101BC0000001C7510001C86F030E00010001B06F92
:101BD0000001C851000EB6EC0FF055920BD057041F
:101BE000D8A408D098EC11F00001C36F000E576E16
:101BF0000001C35155A409D03AC0ABF03BC0ACF0D2
:101C000024EC15F0CD80559404004650D8B408D08B
:101C100000013DC0BFF000013CC0BEF0ACEC0AF0DA
:101C20000DEC14F07AD70001AF6F000E0001000137
:101C3000B16F0001AF5100010001AE51800AF36E97
:101C4000800EF35C000ED8B4AD5DD8B00FD00001AB
:101C50000001AD6D0001AE1FD8B0AE2B0001AF6F1B
:101C6000010E00010001B16F0001AF510001000140
:101C7000AC51800AF36E800EF35C000ED8B4AB5DFD
:101C8000D8B00BD000010001AB6D0001AC1FD8B083
:101C9000AC2B010E00010001B11B000E0001000180
:101CA000B36F000E0001B26F00010001AE51AD1123
:101CB000D8B443D00001AF6F010E00010001B06F36
:101CC0000001AF5109D0000100010001D890AD37EB
:101CD000AE3700010001B02B00010001AEAFF3D719
:101CE000000100010001D890B237B33700010001B4
:101CF000AD5100010001AB5D00010001AE510001DA
:101D00000001AC59D8A00FD000010001AD51000175
:101D10000001AB5F00010001AE5100010001AC5BAE
:101D200000010001B281000100010001D890AE3332
:101D3000AD3300010001B02FD3D700010001B15134
:101D4000D8B407D000010001B26D0001B31FD8B0B4
:101D5000B32BB2C0ABF0B3C0ACF0120004D00001A2
:101D60000001B14BB22BB1C0D9FFB2C0DAFFDF50D6
:101D7000200AD8B4F4D7B1C0D9FFB2C0DAFFDF501F
:101D8000090AD8B4ECD7000E00010001B76F000EAD
:101D90000001B66F0001B36F000E00010001B56FC6
:101DA0000001B3512D0EB1C0D9FFB2C0DAFFDF621E
:101DB00004D000010001B52B32D02B0EB1C0D9FFE9
:101DC000B2C0DAFFDF622FD02AD0B6C0ABF0B7C006
:101DD000ACF0000E00010001AE6F0A0E0001AD6F05
:101DE000DCEC13F0B1C0D9FFB2C0DAFFDF50000164
:101DF000B36FB46B00010001AB510001B3270001C8
:101E00000001AC510001B423D00E0001B325000144
:101E10000001B66FFF0E0001B4210001B76F000191
:101E20000001B14BB22BB1C0D9FFB2C0DAFFDF5015
:101E300082EC14F0D8B0C9D700010001B551D8B474
:101E400010D00001B6C0B3F00001B7C0B4F000017B
:101E5000B31FB41FB34BB42BB3C0B1F0B4C0B2F0D6
:101E600004D0B6C0B1F0B7C0B2F012000101010E4B
:101E700000010001B26F0101000E00010001B16F0D
:101E8000100E00010001B46F160E00010001B36FC7
:101E900064EC12F00001B1C0BCF00001B2C0BDF0B2
:101EA000FE0E0001B86F000EB96F00010001BC51B9
:101EB0000001B82700010001BD510001B923B8C0DD
:101EC000B1F0B9C0B2F0AEEC0EF00001B1C080F0DC
:101ED0000001B2C081F0010E00010001BC2500012B
:101EE000B86F000E00010001BD210001B96F000EA6
:101EF0000001BA6F010EBB6F0001B8510001BA2793
:101F00000001B9510001BB23BAC0B1F0BBC0B2F0AF
:101F1000AEEC0EF00001B1C082F00001B2C083F05F
:101F2000040E00010001BC250001B86F000E000185
:101F30000001BD210001B96F000E0001BA6F010E52
:101F4000BB6F0001B8510001BA270001B95100016F
:101F5000BB23BAC0B1F0BBC0B2F0AEEC0EF00001D2
:101F6000B1C084F00001B2C085F01200E8CFB2F039
:101F7000ABC0B1F000010001B2510A0D560EF324BE
:101F8000D96E000EF420DA6E0001B13BDF50000183
:101F9000B1190F0BB119DF6E00010001B2510A0D2A
:101FA000060EF326000EF422560EF324D96E000E10
:101FB000F420DA6E0001ACC0DFFF00010001B25175
:101FC0000A0D070EF326000EF422560EF324D96EE6
:101FD000000EF420DA6E0001ADC0DFFF0001000149
:101FE000B2510A0D080EF326000EF422560EF32409
:101FF000D96E000EF420DA6E0001AEC0DFFF0001E2
:102000000001B2510A0D090EF326000EF422560EFD
:10201000F324D96E000EF420DA6E0001AFC0DFFFAA
:1020200000010001B2510A0D560EF324D96E000EC4
:10203000F420DA6EDF5000010001B019F00B00014E
:10204000B019DF6E00010001B2510A0D010EF32636
:10205000000EF422560EF324D96E000EF420DA6E30
:10206000000EDF6E12005CD01AC0F6FF1BC0F7FF37
:10207000000EF86E0F0EF76403D00800F55005D07F
:10208000F6CFE9FFF7CFEAFFEF500009D8B41DD033
:102090001CC0F6FF1DC0F7FF000EF86E0800F5CF5C
:1020A00020F01AC0F6FF1BC0F7FF000EF86E0F0EEF
:1020B000F76403D00800F55005D0F6CFE9FFF7CF5D
:1020C000EAFFEF502018D8B427D01CC0F6FF1DC07F
:1020D000F7FF000EF86E0800F550206E216A201EF2
:1020E000211E204A212A1AC0F6FF1BC0F7FF000E4E
:1020F000F86E0F0EF76403D00800F55005D0F6CF48
:10210000E9FFF7CFEAFFEF50226E225020241A6E2B
:10211000000E21201B6E10D01A4A1B2A1C4A1D2AB1
:102120001E06D8A01F061E28D8B41F28D8A49CD7E6
:10213000000E1B6E000E1A6E12000600EACF09F0A8
:10214000E1CF0AF0E2CF0BF0D9CF0CF0DACF0DF0EF
:10215000F3CF0EF0F4CF0FF0F6CF10F0F7CF11F071
:10216000F8CF12F0F5CF13F0A1A208D0558462C0C9
:1021700001F063C002F046EC15F0A1929EA008D0D9
:1021800062C001F063C002F046EC15F0CD909E9065
:10219000F2A203D08A7A5582F2929EA605D09E962C
:1021A000056E010E4C6E0550A1A609D0A196056ED4
:1021B000010E4C6E0550056E010E496E055013C0A0
:1021C000F5FF12C0F8FF11C0F7FF10C0F6FF0FC0F7
:1021D000F4FF0EC0F3FF0DC0DAFF0CC0D9FF0BC037
:1021E000E2FF0AC0E1FF09C0EAFF08C0E9FF07C03B
:1021F000FBFF06C0FAFF110033D024C01BF023C040
:102200001AF026C01DF025C01CF026C015F025C010
:1022100014F0A4EC14F014C01EF015C01FF033EC41
:1022200010F01B501A10D8A405D024C024F023C0ED
:1022300023F032D0010E2324146E000E2420156EDC
:1022400025C0F6FF26C0F7FF000EF86E0800F55017
:10225000166E176A9FEC12F014C023F015C024F01C
:1022600024502310D8B414D023C0F6FF24C0F7FFA5
:10227000000EF86E0F0EF76403D00800F55005D07D
:10228000F6CFE9FFF7CFEAFFEF500009D8A4B5D7A2
:10229000000E246E000E236E12000001ABC0F6FF8C
:1022A0000001ACC0F7FF000EF86E0F0EF76403D00C
:1022B0000800F55005D0F6CFE9FFF7CFEAFFEF5061
:1022C00000010001AD19D8A409D000010001ACC083
:1022D000ACF000010001ABC0ABF029D0000100015F
:1022E000AB510001AF6F00010001AC510001B06FB4
:1022F0000001AB4BAC2BAFC0F6FFB0C0F7FF000E38
:10230000F86E0F0EF76403D00800F55005D0F6CF35
:10231000E9FFF7CFEAFFEF500009D8A4BED7000EBF
:1023200000010001AC6F000E00010001AB6F120054
:1023300058500F0B00010001AB6F58380F0B070B03
:102340000A0DF3CFACF000010001AB510001000118
:10235000AC2500010001846F0001856B0001853709
:1023600059500F0B00010001AB6F59380F0B070BD1
:102370000A0DF3CFACF000010001AB5100010001E8
:10238000AC2500010001826F0001836B00018337DF
:102390005A500F0B00010001AB6F5A380F0B010BA5
:1023A0000A0DF3CFACF000010001AB5100010001B8
:1023B000AC2500010001806F0001816B00018137B5
:1023C000120000010001AE51AD11D8B43AD00001A5
:1023D000AF6F010E00010001B06F0001AF5109D0D5
:1023E000000100010001D890AD37AE3700010001B7
:1023F000B02B00010001AEAFF3D700010001AD51D9
:1024000000010001AB5D00010001AE5100010001BF
:10241000AC59D8A00CD000010001AD510001000161
:10242000AB5F00010001AE5100010001AC5B000197
:1024300000010001D890AE33AD3300010001B02F90
:10244000DCD7ABC0ABF0ACC0ACF012004E984E9AEB
:102450004E9C4E9E4E904E924E944E964B500A0D70
:10246000020EF326000EF422560EF324D96E000E4F
:10247000F420DA6E000EDF6E4B500A0D030EF326C9
:10248000000EF422560EF324D96E000EF420DA6EFC
:10249000000EDF6E0001AB6F000E4C6E0001AB5101
:1024A0000001AB6F000E496E0001AB510001AB6F34
:1024B000010E4A6E0001AB51000EC7B6010E4D6E03
:1024C000C580C5A01200FDD7000E00010001B76F46
:1024D000000E0001B66F08D000010001B14BB22B15
:1024E00000010001B64BB72BB1C0D9FFB2C0DAFF73
:1024F000DF50D8B41FD000010001B4C0ACF000011F
:102500000001B3C0ABF0B1C0D9FFB2C0DAFFDF50F9
:102510000001B56F0001B55100010001AD6F000170
:10252000AE6B4DEC11F000010001AC510001AB119C
:10253000D8B4D2D7B6C0B1F0B7C0B2F0120014C050
:10254000F6FF15C0F7FF000EF86E0F0EF76403D00C
:102550000800F55005D0F6CFE9FFF7CFEAFFEF50BE
:102560001618D8A405D015C015F014C014F01ED04C
:102570001450186E1550196E144A152A18C0F6FF1B
:1025800019C0F7FF000EF86E0F0EF76403D00800B5
:10259000F55005D0F6CFE9FFF7CFEAFFEF5000097D
:1025A000D8A4CDD7000E156E000E146E12000001D7
:1025B000B76F000E466E0001B75100010001B6C0B2
:1025C000ACF000010001B5C0ABF00EEC13F000015F
:1025D0000001AB51536E0001B76F000E526E000147
:1025E000B7510001000E00010001AC6F00018B0E1D
:1025F00000010001AB6F00010001B6C0AEF00001A8
:102600000001B5C0ADF0000153C0AFF00001000102
:10261000B06B77EC13F0AC8A9D88120000010001CA
:10262000ACC0B0F000010001ABC0AFF004D00001BD
:102630000001AF4BB02B0001AFC0F6FF0001B0C0EE
:10264000F7FF000EF86E0800F5500009D8A4EFD788
:102650000001ABC0ADF00001ACC0AEF00001AD1F99
:10266000AE1FAD4BAE2B00010001AF510001AD25F7
:1026700000010001AB6F00010001B0510001AE216B
:102680000001AC6F1200E8CFADF00001AB6F000E9F
:1026900000010001AC6F0001AB5100010001AD5120
:1026A0000A0D560EF324D96E000EF420DA6EDF38D0
:1026B0000F0B0009D8A417D000010001AD510A0D7D
:1026C000560EF324D96E000EF420DA6EDF500F0B95
:1026D0000009D8A408D00001AB6F010E0001000171
:1026E000AC6F0001AB5100010001AC5112000001C0
:1026F0000001AEC0B4F000010001ADC0B3F00001B4
:102700000001ACC0B2F000010001ABC0B1F017D0C5
:102710000001B3C0F6FF0001B4C0F7FF000EF86E71
:10272000B1C0D9FFB2C0DAFF0800F5CFDFFF00016A
:102730000001B34BB42B00010001B14BB22B0001DF
:102740000001AF07D8A0B0070001AF29D8B4B02965
:10275000D8B41200DDD7C10E926EC10E936EDC0E9E
:10276000946E000E946EF80E966EC150F00B0E092A
:10277000C16ED59ED59CD59AD598D596D580D58253
:10278000D5841B0E616E1D0E606E5590F294CD9037
:10279000CD92CD8ECD96CD9CCD84300ECD129E9017
:1027A000B190B18EB192300EB112FB0E636E1D0E60
:1027B000626E5594A192120000010001AB5100011C
:1027C0000001AD03F3CFAFF0F4CFB0F00001000192
:1027D000AB5100010001AE03F3CFF4FFF36AF350F5
:1027E00000010001AF27F45000010001B0230001F7
:1027F0000001AC5100010001AD03F3CFF4FFF36A17
:10280000F35000010001AF27F45000010001B02394
:10281000AFC0ABF0B0C0ACF012004C50D8B403D095
:102820000DEC08F026D04A50D8A423D04B500A0D06
:10283000560EF324D96E000EF420DA6EDF500F0B23
:102840000009D8A40DD04B500A0D560EF324D96EB2
:10285000000EF420DA6EDF380F0B0009D8B403D075
:1028600026EC12F006D00001AF6F000E4B6E000197
:10287000AF51120001EE00F0400EEE6AE806FDE1F5
:1028800000EE80F02B0EEE6AE806FDE100EE3AF075
:10289000260EEE6AE806FDE1120EF66E2A0EF76EBF
:1028A000000EF86E00EEC9F010EE1BF00900F5CF37
:1028B000EEFFE550E150FAE1000178EF0DF0000184
:1028C000AD6F000E476E0001AD510001AD6F010EFE
:1028D000466E0001AD510001AD6F000E0001000118
:1028E0008A6F0001AD510001AD6F000E00010001C3
:1028F000896F0001AD510001ACC03DF00001ABC0DB
:102900003CF01200E8CFADF00001AB6F000E00010B
:102910000001AC6F0001AB513A0E00010001AD5D4A
:10292000D8B00DD02F0E00010001AD6508D0000118
:10293000AB6F010E00010001AC6F0001AB51ACC0E8
:10294000ABF00001AB31120015C019F014C018F043
:1029500002D0184A192A18C0F6FF19C0F7FF000E56
:10296000F86E0800F5500009D8A4F3D714C016F08B
:1029700015C017F0161E171E164A172A18501624CF
:10298000146E19501720156E1200E8CFACF03F0EF0
:10299000C716000EC66E000EC56E00010001AC51D8
:1029A000C61200010001AB51C71294869488C68AF2
:1029B0001200000EB06E110EAF6EAC84AC98B886EB
:1029C000AB8EAB88AB9AAC9CAB9CAC9AAC9A9F9804
:1029D0009D989F9A9D9A1200F20E5416ABAC03D0AC
:1029E0005490ABB05480ABB45484ABB25486AECFE9
:1029F00014F0145012000001AD6F000E466E00017D
:102A0000AD510001AD6F000E4F6E0001AD519D8ABA
:102A10001200A02A010E10A02A001210A02A0108FC
:102A200010A02A0001106C1E020D10A02A00000147
:102A3000ACC0ADF00001AE6BADBFAE690001AD51F1
:102A4000B36EABC0B2FF12000001ACC0ADF000012C
:102A5000AE6BADBFAE690001AD51CF6EABC0CEFF66
:102A60001200D08EF194F294F28AF19CF292F288E4
:102A70009F809E909D80120015C016F0176A16BEAA
:102A800017681650D76E14C0D6FF120002C003F0AC
:102A9000046A03BE04680350B36E01C0B2FF1200A3
:022AA000120022
:020000040020DA
:08000000FFFFFFFFFFFFFFFF00
:020000040030CA
:0E000000FF060F11FF8381FF0FC00FE00F40BE
:00000001FF
